import unittest
from pprint import pprint

from .. import transaction
from ..address import Address, ScriptOutput, PublicKey
from ..bitcoin import TYPE_ADDRESS, TYPE_PUBKEY, TYPE_SCRIPT

from ..keystore import xpubkey_to_address

from ..util import bh2u

unsigned_blob = '010000000149f35e43fefd22d8bb9e4b3ff294c6286154c25712baf6ab77b646e5074d6aed010000002401ff21034f355bdcb7cc0af728ef3cceb9615d90684bb5b2ca5f859ab0f0b704075871aafeffffffd8e43201000000000118e43201000000001976a914e158fb15c888037fdc40fb9133b4c1c3c688706488ac5fbd0700'
signed_blob = '010000000149f35e43fefd22d8bb9e4b3ff294c6286154c25712baf6ab77b646e5074d6aed010000006c493046022100d3914713012c791b32da982eac7a1d4599fbb0e3438e9afca77d3a81906fa2b2022100973858e4e7795e8ef8561262fd0468812a5769691ab108da88b3cdb671710e884121034f355bdcb7cc0af728ef3cceb9615d90684bb5b2ca5f859ab0f0b704075871aafeffffff0118e43201000000001976a914e158fb15c888037fdc40fb9133b4c1c3c688706488ac5fbd0700'
v2_blob = "0200000001191601a44a81e061502b7bfbc6eaa1cef6d1e6af5308ef96c9342f71dbf4b9b5000000006b483045022100a6d44d0a651790a477e75334adfb8aae94d6612d01187b2c02526e340a7fd6c8022028bdf7a64a54906b13b145cd5dab21a26bd4b85d6044e9b97bceab5be44c2a9201210253e8e0254b0c95776786e40984c1aa32a7d03efa6bdacdea5f421b774917d346feffffff026b20fa04000000001976a914024db2e87dd7cfd0e5f266c5f212e21a31d805a588aca0860100000000001976a91421919b94ae5cefcdf0271191459157cdb41c4cbf88aca6240700"
nonmin_blob = '010000000142b88360bd83813139af3a251922b7f3d2ac88e45a2a703c28db8ee8580dc3a300000000654c41151dc44bece88c5933d737176499209a0b1688d5eb51eb6f1fd9fcf2fb32d138c94b96a4311673b75a31c054210b2058735ce6c12e529ddea4a6b91e4a3786d94121034a29987f30ad5d23d79ed5215e034c51f6825bdb2aa595c2bdeb37902960b3d1feffffff012e030000000000001976a914480d1be8ab76f8cdd85ce4077f51d35b0baaa25a88ac4b521400'

class TestBCDataStream(unittest.TestCase):

    def test_compact_size(self):
        s = transaction.BCDataStream()
        values = [0, 1, 252, 253, 2**16-1, 2**16, 2**32-1, 2**32, 2**64-1]
        for v in values:
            s.write_compact_size(v)

        with self.assertRaises(transaction.SerializationError):
            s.write_compact_size(-1)

        self.assertEqual(bh2u(s.input),
                          '0001fcfdfd00fdfffffe00000100feffffffffff0000000001000000ffffffffffffffffff')
        for v in values:
            self.assertEqual(s.read_compact_size(), v)

        with self.assertRaises(transaction.SerializationError):
            s.read_compact_size()

    def test_string(self):
        s = transaction.BCDataStream()
        with self.assertRaises(transaction.SerializationError):
            s.read_string()

        msgs = ['Hello', ' ', 'World', '', '!']
        for msg in msgs:
            s.write_string(msg)
        for msg in msgs:
            self.assertEqual(s.read_string(), msg)

        with self.assertRaises(transaction.SerializationError):
            s.read_string()

    def test_bytes(self):
        s = transaction.BCDataStream()
        s.write(b'foobar')
        self.assertEqual(s.read_bytes(3), b'foo')
        self.assertEqual(s.read_bytes(2), b'ba')
        self.assertEqual(s.read_bytes(4), b'r')
        self.assertEqual(s.read_bytes(1), b'')

class TestTransaction(unittest.TestCase):

    def test_tx_unsigned(self):
        expected = {
            'inputs': [{'address': Address.from_string('1Q1pE5vPGEEMqRcVRMbtBK842Y6Pzo6nK9'),
                        'num_sig': 1,
                        'prevout_hash': 'ed6a4d07e546b677abf6ba1257c2546128c694f23f4b9ebbd822fdfe435ef349',
                        'prevout_n': 1,
                        'pubkeys': ['034f355bdcb7cc0af728ef3cceb9615d90684bb5b2ca5f859ab0f0b704075871aa'],
                        'sequence': 4294967294,
                        'signatures': [None],
                        'type': 'p2pkh',
                        'value': 20112600,
                        'x_pubkeys': ['034f355bdcb7cc0af728ef3cceb9615d90684bb5b2ca5f859ab0f0b704075871aa']}],
            'lockTime': 507231,
            'outputs': [{'address': Address.from_string('1MYXdf4moacvaEKZ57ozerpJ3t9xSeN6LK'),
                         'prevout_n': 0,
                         'scriptPubKey': '76a914e158fb15c888037fdc40fb9133b4c1c3c688706488ac',
                         'type': 0,
                         'value': 20112408}],
            'version': 1}
        tx = transaction.Transaction(unsigned_blob)
        calc = tx.deserialize()
        self.assertEqual(calc, expected)
        self.assertEqual(tx.deserialize(), None)

        self.assertEqual(tx.as_dict(), {'hex': unsigned_blob, 'complete': False, 'final': True})
        self.assertEqual(tx.get_outputs(), [(Address.from_string('1MYXdf4moacvaEKZ57ozerpJ3t9xSeN6LK'), 20112408)])
        self.assertEqual(tx.get_output_addresses(), [Address.from_string('1MYXdf4moacvaEKZ57ozerpJ3t9xSeN6LK')])

        self.assertTrue(tx.has_address(Address.from_string('1MYXdf4moacvaEKZ57ozerpJ3t9xSeN6LK')))
        self.assertTrue(tx.has_address(Address.from_string('1Q1pE5vPGEEMqRcVRMbtBK842Y6Pzo6nK9')))
        self.assertFalse(tx.has_address(Address.from_string('1CQj15y1N7LDHp7wTt28eoD1QhHgFgxECH')))

        self.assertEqual(tx.serialize(), unsigned_blob)

        tx.update_signatures(['3046022100d3914713012c791b32da982eac7a1d4599fbb0e3438e9afca77d3a81906fa2b2022100973858e4e7795e8ef8561262fd0468812a5769691ab108da88b3cdb671710e88'])
        self.assertEqual(tx.raw, signed_blob)

        tx.update(unsigned_blob)
        tx.raw = None
        blob = str(tx)
        self.assertEqual(transaction.deserialize(blob), expected)

    def test_tx_signed(self):
        expected = {
            'inputs': [{'address': Address.from_string('1Q1pE5vPGEEMqRcVRMbtBK842Y6Pzo6nK9'),
                        'num_sig': 1,
                        'prevout_hash': 'ed6a4d07e546b677abf6ba1257c2546128c694f23f4b9ebbd822fdfe435ef349',
                        'prevout_n': 1,
                        'pubkeys': ['034f355bdcb7cc0af728ef3cceb9615d90684bb5b2ca5f859ab0f0b704075871aa'],
                        'scriptSig': '493046022100d3914713012c791b32da982eac7a1d4599fbb0e3438e9afca77d3a81906fa2b2022100973858e4e7795e8ef8561262fd0468812a5769691ab108da88b3cdb671710e884121034f355bdcb7cc0af728ef3cceb9615d90684bb5b2ca5f859ab0f0b704075871aa',
                        'sequence': 4294967294,
                        'signatures': ['3046022100d3914713012c791b32da982eac7a1d4599fbb0e3438e9afca77d3a81906fa2b2022100973858e4e7795e8ef8561262fd0468812a5769691ab108da88b3cdb671710e8841'],
                        'type': 'p2pkh',
                        'x_pubkeys': ['034f355bdcb7cc0af728ef3cceb9615d90684bb5b2ca5f859ab0f0b704075871aa']}],
            'lockTime': 507231,
            'outputs': [{'address': Address.from_string('1MYXdf4moacvaEKZ57ozerpJ3t9xSeN6LK'),
                         'prevout_n': 0,
                         'scriptPubKey': '76a914e158fb15c888037fdc40fb9133b4c1c3c688706488ac',
                         'type': 0,
                         'value': 20112408}],
            'version': 1
        }
        tx = transaction.Transaction(signed_blob)
        self.assertEqual(tx.deserialize(), expected)
        self.assertEqual(tx.deserialize(), None)
        self.assertEqual(tx.as_dict(), {'hex': signed_blob, 'complete': True, 'final': True})

        self.assertEqual(tx.serialize(), signed_blob)

        tx.update_signatures([expected['inputs'][0]['signatures'][0][:-2]])

        self.assertEqual(tx.estimated_size(), 193)

    def test_tx_nonminimal_scriptSig(self):
        # The nonminimal push is the '4c41...' (PUSHDATA1 length=0x41 [...]) at
        # the start of the scriptSig. Minimal is '41...' (PUSH0x41 [...]).
        expected = {
            'inputs': [{'address': Address.from_pubkey('034a29987f30ad5d23d79ed5215e034c51f6825bdb2aa595c2bdeb37902960b3d1'),
                        'num_sig': 1,
                        'prevout_hash': 'a3c30d58e88edb283c702a5ae488acd2f3b72219253aaf39318183bd6083b842',
                        'prevout_n': 0,
                        'pubkeys': ['034a29987f30ad5d23d79ed5215e034c51f6825bdb2aa595c2bdeb37902960b3d1'],
                        'scriptSig': '4c41151dc44bece88c5933d737176499209a0b1688d5eb51eb6f1fd9fcf2fb32d138c94b96a4311673b75a31c054210b2058735ce6c12e529ddea4a6b91e4a3786d94121034a29987f30ad5d23d79ed5215e034c51f6825bdb2aa595c2bdeb37902960b3d1',
                        'sequence': 4294967294,
                        'signatures': ['151dc44bece88c5933d737176499209a0b1688d5eb51eb6f1fd9fcf2fb32d138c94b96a4311673b75a31c054210b2058735ce6c12e529ddea4a6b91e4a3786d941'],
                        'type': 'p2pkh',
                        'x_pubkeys': ['034a29987f30ad5d23d79ed5215e034c51f6825bdb2aa595c2bdeb37902960b3d1']}],
            'lockTime': 1331787,
            'outputs': [{'address': Address.from_pubkey('034a29987f30ad5d23d79ed5215e034c51f6825bdb2aa595c2bdeb37902960b3d1'),
                         'prevout_n': 0,
                         'scriptPubKey': '76a914480d1be8ab76f8cdd85ce4077f51d35b0baaa25a88ac',
                         'type': 0,
                         'value': 814}],
            'version': 1
        }
        tx = transaction.Transaction(nonmin_blob)
        self.assertEqual(tx.deserialize(), expected)
        self.assertEqual(tx.deserialize(), None)
        self.assertEqual(tx.as_dict(), {'hex': nonmin_blob, 'complete': True, 'final': True})

        self.assertEqual(tx.serialize(), nonmin_blob)

        # if original push is lost, will wrongly be e64808c1eb86e8cab68fcbd8b7f3b01f8cc8f39bd05722f1cf2d7cd9b35fb4e3
        self.assertEqual(tx.txid(), '66020177ae3273d874728667b6a24e0a1c0200079119f3d0c294da40f0e85d34')

        # cause it to lose the original push, and reserialize with minimal
        del tx.inputs()[0]['scriptSig']
        self.assertEqual(tx.txid(), 'e64808c1eb86e8cab68fcbd8b7f3b01f8cc8f39bd05722f1cf2d7cd9b35fb4e3')

    def test_errors(self):
        with self.assertRaises(TypeError):
            transaction.Transaction.pay_script(output_type=None, addr='')

        with self.assertRaises(BaseException):
            xpubkey_to_address('')

    def test_parse_xpub(self):
        res = xpubkey_to_address('fe4e13b0f311a55b8a5db9a32e959da9f011b131019d4cebe6141b9e2c93edcbfc0954c358b062a9f94111548e50bde5847a3096b8b7872dcffadb0e9579b9017b01000200')
        self.assertEqual(res, ('04ee98d63800824486a1cf5b4376f2f574d86e0a3009a6448105703453f3368e8e1d8d090aaecdd626a45cc49876709a3bbb6dc96a4311b3cac03e225df5f63dfc', Address.from_string('19h943e4diLc68GXW7G75QNe2KWuMu7BaJ')))

    def test_version_field(self):
        tx = transaction.Transaction(v2_blob)
        self.assertEqual(tx.txid(), "b97f9180173ab141b61b9f944d841e60feec691d6daab4d4d932b24dd36606fe")

    def test_txid_coinbase_to_p2pk(self):
        tx = transaction.Transaction('01000000010000000000000000000000000000000000000000000000000000000000000000ffffffff4103400d0302ef02062f503253482f522cfabe6d6dd90d39663d10f8fd25ec88338295d4c6ce1c90d4aeb368d8bdbadcc1da3b635801000000000000000474073e03ffffffff013c25cf2d01000000434104b0bd634234abbb1ba1e986e884185c61cf43e001f9137f23c2c409273eb16e6537a576782eba668a7ef8bd3b3cfb1edb7117ab65129b8a2e681f3c1e0908ef7bac00000000')
        self.assertEqual('dbaf14e1c476e76ea05a8b71921a46d6b06f0a950f17c5f9f1a03b8fae467f10', tx.txid())

    def test_txid_coinbase_to_p2pkh(self):
        tx = transaction.Transaction('01000000010000000000000000000000000000000000000000000000000000000000000000ffffffff25033ca0030400001256124d696e656420627920425443204775696c640800000d41000007daffffffff01c00d1298000000001976a91427a1f12771de5cc3b73941664b2537c15316be4388ac00000000')
        self.assertEqual('4328f9311c6defd9ae1bd7f4516b62acf64b361eb39dfcf09d9925c5fd5c61e8', tx.txid())

    def test_txid_p2pk_to_p2pkh(self):
        tx = transaction.Transaction('010000000118231a31d2df84f884ced6af11dc24306319577d4d7c340124a7e2dd9c314077000000004847304402200b6c45891aed48937241907bc3e3868ee4c792819821fcde33311e5a3da4789a02205021b59692b652a01f5f009bd481acac2f647a7d9c076d71d85869763337882e01fdffffff016c95052a010000001976a9149c4891e7791da9e622532c97f43863768264faaf88ac00000000')
        self.assertEqual('90ba90a5b115106d26663fce6c6215b8699c5d4b2672dd30756115f3337dddf9', tx.txid())

    def test_txid_p2pk_to_p2sh(self):
        tx = transaction.Transaction('0100000001e4643183d6497823576d17ac2439fb97eba24be8137f312e10fcc16483bb2d070000000048473044022032bbf0394dfe3b004075e3cbb3ea7071b9184547e27f8f73f967c4b3f6a21fa4022073edd5ae8b7b638f25872a7a308bb53a848baa9b9cc70af45fcf3c683d36a55301fdffffff011821814a0000000017a9143c640bc28a346749c09615b50211cb051faff00f8700000000')
        self.assertEqual('172bdf5a690b874385b98d7ab6f6af807356f03a26033c6a65ab79b4ac2085b5', tx.txid())

    def test_txid_p2pkh_to_p2pkh(self):
        tx = transaction.Transaction('0100000001f9dd7d33f315617530dd72264b5d9c69b815626cce3f66266d1015b1a590ba90000000006a4730440220699bfee3d280a499daf4af5593e8750b54fef0557f3c9f717bfa909493a84f60022057718eec7985b7796bb8630bf6ea2e9bf2892ac21bd6ab8f741a008537139ffe012103b4289890b40590447b57f773b5843bf0400e9cead08be225fac587b3c2a8e973fdffffff01ec24052a010000001976a914ce9ff3d15ed5f3a3d94b583b12796d063879b11588ac00000000')
        self.assertEqual('24737c68f53d4b519939119ed83b2a8d44d716d7f3ca98bcecc0fbb92c2085ce', tx.txid())

    def test_txid_p2pkh_to_p2sh(self):
        tx = transaction.Transaction('010000000195232c30f6611b9f2f82ec63f5b443b132219c425e1824584411f3d16a7a54bc000000006b4830450221009f39ac457dc8ff316e5cc03161c9eff6212d8694ccb88d801dbb32e85d8ed100022074230bb05e99b85a6a50d2b71e7bf04d80be3f1d014ea038f93943abd79421d101210317be0f7e5478e087453b9b5111bdad586038720f16ac9658fd16217ffd7e5785fdffffff0200e40b540200000017a914d81df3751b9e7dca920678cc19cac8d7ec9010b08718dfd63c2c0000001976a914303c42b63569ff5b390a2016ff44651cd84c7c8988acc7010000')
        self.assertEqual('155e4740fa59f374abb4e133b87247dccc3afc233cb97c2bf2b46bba3094aedc', tx.txid())

    def test_txid_p2sh_to_p2pkh(self):
        tx = transaction.Transaction('0100000001b98d550fa331da21038952d6931ffd3607c440ab2985b75477181b577de118b10b000000fdfd0000483045022100a26ea637a6d39aa27ea7a0065e9691d477e23ad5970b5937a9b06754140cf27102201b00ed050b5c468ee66f9ef1ff41dfb3bd64451469efaab1d4b56fbf92f9df48014730440220080421482a37cc9a98a8dc3bf9d6b828092ad1a1357e3be34d9c5bbdca59bb5f02206fa88a389c4bf31fa062977606801f3ea87e86636da2625776c8c228bcd59f8a014c69522102420e820f71d17989ed73c0ff2ec1c1926cf989ad6909610614ee90cf7db3ef8721036eae8acbae031fdcaf74a824f3894bf54881b42911bd3ad056ea59a33ffb3d312103752669b75eb4dc0cca209af77a59d2c761cbb47acc4cf4b316ded35080d92e8253aeffffffff0101ac3a00000000001976a914a6b6bcc85975bf6a01a0eabb2ac97d5a418223ad88ac00000000')
        self.assertEqual('0ea982e8e601863e604ef6d9acf9317ae59d3eac9cafee6dd946abadafd35af8', tx.txid())

    def test_txid_p2sh_to_p2sh(self):
        tx = transaction.Transaction('01000000018695eef2250b3a3b6ef45fe065e601610e69dd7a56de742092d40e6276e6c9ec00000000fdfd000047304402203199bf8e49f7203e8bcbfd754aa356c6ba61643a3490f8aef3888e0aaa7c048c02201e7180bfd670f4404e513359b4020fbc85d6625e3e265e0c357e8611f11b83e401483045022100e60f897db114679f9a310a032a22e9a7c2b8080affe2036c480ff87bf6f45ada02202dbd27af38dd97d418e24d89c3bb7a97e359dd927c1094d8c9e5cac57df704fb014c69522103adc563b9f5e506f485978f4e913c10da208eac6d96d49df4beae469e81a4dd982102c52bc9643a021464a31a3bfa99cfa46afaa4b3acda31e025da204b4ee44cc07a2103a1c8edcc3310b3d7937e9e4179e7bd9cdf31c276f985f4eb356f21b874225eb153aeffffffff02b8ce05000000000017a9145c9c158430b7b79c3ad7ef9bdf981601eda2412d87b82400000000000017a9146bf3ff89019ecc5971a39cdd4f1cabd3b647ad5d8700000000')
        self.assertEqual('2caab5a11fa1ec0f5bb014b8858d00fecf2c001e15d22ad04379ad7b36fef305', tx.txid())

    def test_parse_output_p2pkh(self):
        tx = transaction.Transaction('010000000100000000000000000000000000000000000000000000000000000000000000000000000000000000000100000000000000001976a914aaaaaaaaaaaaaaaaaaaaaaaaaaaaaaaaaaaaaaaa88ac00000000')
        self.assertEqual(tx.outputs(), [(TYPE_ADDRESS, Address.from_P2PKH_hash(b'\xaa'*20), 0)])
        self.assertEqual('7a0e3fcbdaa9ecc6ccce1ad325b6b661e774a57f2e8519c679964e2dd32e200f', tx.txid())

    def test_parse_output_p2pkh_nonmin(self):
        tx = transaction.Transaction('010000000100000000000000000000000000000000000000000000000000000000000000000000000000000000000100000000000000001a76a94c14aaaaaaaaaaaaaaaaaaaaaaaaaaaaaaaaaaaaaaaa88ac00000000')
        self.assertEqual(tx.outputs(), [(TYPE_SCRIPT, ScriptOutput(bytes.fromhex('76a94c14aaaaaaaaaaaaaaaaaaaaaaaaaaaaaaaaaaaaaaaa88ac')), 0)])
        self.assertEqual('69706667959fd2e6aa3385acdcd2c478e875344422e1f4c94eb06065268540d1', tx.txid())

    def test_parse_output_p2sh(self):
        tx = transaction.Transaction('0100000001000000000000000000000000000000000000000000000000000000000000000000000000000000000001000000000000000017a914aaaaaaaaaaaaaaaaaaaaaaaaaaaaaaaaaaaaaaaa8700000000')
        self.assertEqual(tx.outputs(), [(TYPE_ADDRESS, Address.from_P2SH_hash(b'\xaa'*20), 0)])
        self.assertEqual('d33750908965d24a411d94371fdc64ebb06f13bf4d19e73372347e6b4eeca49f', tx.txid())

    def test_parse_output_p2sh_nonmin(self):
        tx = transaction.Transaction('0100000001000000000000000000000000000000000000000000000000000000000000000000000000000000000001000000000000000018a94c14aaaaaaaaaaaaaaaaaaaaaaaaaaaaaaaaaaaaaaaa8700000000')
        self.assertEqual(tx.outputs(), [(TYPE_SCRIPT, ScriptOutput(bytes.fromhex('a94c14aaaaaaaaaaaaaaaaaaaaaaaaaaaaaaaaaaaaaaaa87')), 0)])
        self.assertEqual('dd4b174d7094c63c9f530703702a8d76c7b3fe5fc278ba2837dbd75bc5b0b296', tx.txid())

    def test_parse_output_p2pk(self):
        tx = transaction.Transaction('010000000100000000000000000000000000000000000000000000000000000000000000000000000000000000000100000000000000002321030000000000000000000000000000000000000000000000000000000000000000ac00000000')
        self.assertEqual(tx.outputs(), [(TYPE_PUBKEY, PublicKey.from_pubkey(b'\x03' + b'\x00'*32), 0)])
        self.assertEqual('78afa0576a4ee6e7db663a58202f11bab8e860dd4a2226f856a2490187046b3d', tx.txid())

    def test_parse_output_p2pk_badpubkey(self):
        tx = transaction.Transaction('010000000100000000000000000000000000000000000000000000000000000000000000000000000000000000000100000000000000002321040000000000000000000000000000000000000000000000000000000000000000ac00000000')
        self.assertEqual(tx.outputs(), [(TYPE_SCRIPT, ScriptOutput(bytes.fromhex('21040000000000000000000000000000000000000000000000000000000000000000ac')), 0)])
        self.assertEqual('8e57f026081b6589570dc5e6e339b706d2ac75e6cbd1896275dee176b8d35ba6', tx.txid())

    def test_parse_output_p2pk_nonmin(self):
        tx = transaction.Transaction('01000000010000000000000000000000000000000000000000000000000000000000000000000000000000000000010000000000000000244c21030000000000000000000000000000000000000000000000000000000000000000ac00000000')
        self.assertEqual(tx.outputs(), [(TYPE_SCRIPT, ScriptOutput(bytes.fromhex('4c21030000000000000000000000000000000000000000000000000000000000000000ac')), 0)])
        self.assertEqual('730d77384d7bfc965caa338b501e7b071092474320af6ea19052859c93bfaf98', tx.txid())

    def test_parse_output_p2pk_uncomp(self):
        tx = transaction.Transaction('0100000001000000000000000000000000000000000000000000000000000000000000000000000000000000000001000000000000000043410400000000000000000000000000000000000000000000000000000000000000000000000000000000000000000000000000000000000000000000000000000000ac00000000')
        self.assertEqual(tx.outputs(), [(TYPE_PUBKEY, PublicKey.from_pubkey(b'\x04' + b'\x00'*64), 0)])
        self.assertEqual('053626542393dd957a14bb2bcbfdcf3564a5f438e923799e1b9714c4a8e70a7c', tx.txid())

    def test_parse_output_p2pk_uncomp_badpubkey(self):
        tx = transaction.Transaction('0100000001000000000000000000000000000000000000000000000000000000000000000000000000000000000001000000000000000043410300000000000000000000000000000000000000000000000000000000000000000000000000000000000000000000000000000000000000000000000000000000ac00000000')
        self.assertEqual(tx.outputs(), [(TYPE_SCRIPT, ScriptOutput(b'\x41\x03' + b'\x00'*64 + b'\xac'), 0)])
        self.assertEqual('a15a9f86f5a47ef7efc28ae701f5b2a353aff76a21cb22ff08b77759533fb59b', tx.txid())

    def test_parse_output_p2pk_uncomp_nonmin(self):
        tx = transaction.Transaction('01000000010000000000000000000000000000000000000000000000000000000000000000000000000000000000010000000000000000444c410400000000000000000000000000000000000000000000000000000000000000000000000000000000000000000000000000000000000000000000000000000000ac00000000')
        self.assertEqual(tx.outputs(), [(TYPE_SCRIPT, ScriptOutput(b'\x4c\x41\x04' + b'\x00'*64 + b'\xac'), 0)])
        self.assertEqual('bd8e0827c8bacd6bac10dd28d5fc6ad52f3fef3f91200c7c1d8698531c9325e9', tx.txid())

    def test_parse_output_baremultisig(self):
        # no special support for recognizing bare multisig outputs
        tx = transaction.Transaction('0100000001000000000000000000000000000000000000000000000000000000000000000000000000000000000001000000000000000025512103000000000000000000000000000000000000000000000000000000000000000051ae00000000')
        self.assertEqual(tx.outputs(), [(TYPE_SCRIPT, ScriptOutput(b'\x51\x21\x03' + b'\x00'*32 + b'\x51\xae'), 0)])
        self.assertEqual('b1f66fde0aa3d5af03be3c69f599069aad217e939f36cacc2372ea4fece7d57b', tx.txid())

    def test_parse_output_baremultisig_nonmin(self):
        # even if bare multisig support is added, note that this case should still remain unrecognized
        tx = transaction.Transaction('0100000001000000000000000000000000000000000000000000000000000000000000000000000000000000000001000000000000000026514c2103000000000000000000000000000000000000000000000000000000000000000051ae00000000')
        self.assertEqual(tx.outputs(), [(TYPE_SCRIPT, ScriptOutput(b'\x51\x4c\x21\x03' + b'\x00'*32 + b'\x51\xae'), 0)])
        self.assertEqual('eb0b69c86a05499cabc42b12d4706b18eab97ed6155fc966e488a433edf05932', tx.txid())

    def test_parse_output_truncated1(self):
        # truncated in middle of PUSHDATA2's first argument
        tx = transaction.Transaction('01000000010000000000000000000000000000000000000000000000000000000000000000000000000000000000010000000000000000024d0100000000')
        self.assertEqual(tx.outputs(), [(TYPE_SCRIPT, ScriptOutput(b'\x4d\x01'), 0)])
        self.assertIn("Invalid script", tx.outputs()[0][1].to_ui_string())
        self.assertEqual('72d8af8edcc603c6c64390ac5eb913b97a80efe0f5ae7c00ad5397eb5786cd33', tx.txid())

    def test_parse_output_truncated1(self):
        # truncated in middle of PUSHDATA2's second argument
        tx = transaction.Transaction('01000000010000000000000000000000000000000000000000000000000000000000000000000000000000000000010000000000000000044d0200ff00000000')
        self.assertEqual(tx.outputs(), [(TYPE_SCRIPT, ScriptOutput(b'\x4d\x02\x00\xff'), 0)])
        self.assertIn("Invalid script", tx.outputs()[0][1].to_ui_string())
        self.assertEqual('976667816c4955189973cc56ac839844da4ed32a8bd22a8c6217c2c04e69e9d7', tx.txid())

    def test_parse_output_empty(self):
        # nothing wrong with empty output script
        tx = transaction.Transaction('010000000100000000000000000000000000000000000000000000000000000000000000000000000000000000000100000000000000000000000000')
        self.assertEqual(tx.outputs(), [(TYPE_SCRIPT, ScriptOutput(b''), 0)])
        self.assertEqual("", tx.outputs()[0][1].to_ui_string())
        self.assertEqual('50fa7bd4e5e2d3220fd2e84effec495b9845aba379d853408779d59a4b0b4f59', tx.txid())

class TestRadiantPreimage(unittest.TestCase):
    """Regression tests for Radiant's hashOutputHashes sighash extension.

    The preimage plumbing has always emitted the 36-byte zero placeholder
    for the per-output `totalRefs | refsHash` summary. PR A replaces those
    zeros with real values when an output carries OP_PUSHINPUTREF /
    OP_PUSHINPUTREFSINGLETON opcodes. This class asserts two things:

      1. Non-Glyph outputs stay byte-identical to the pre-PR-A behaviour
         (a plain P2PKH tx still signs/verifies the same way).
      2. The mainnet golden vector below proves PR A's Glyph-output
         summary matches what radiant-node computed: we reconstruct the
         preimage, sha256d it, and verify the live mainnet signature on
         vin[1] against the recovered msg_hash.
    """

    def test_non_glyph_output_preimage_bytes_identical(self):
        """For a tx with only plain P2PKH outputs, PR A must emit exactly
        72 zero hex chars (36 zero bytes) for the totalRefs|refsHash
        region of each per-output summary — byte-identical to the
        pre-PR-A plumbing."""
        tx = transaction.Transaction(signed_blob)
        tx.deserialize()
        output = tx.outputs()[0]
        # hashOutput summary = 8B value + 32B sha256d(spk) + 4B totalRefs + 32B refsHash
        # = 76 bytes = 152 hex chars. The last 72 chars (36 bytes) should be all zeros.
        summary_hex = tx.serialize_hash_output(output, 0)
        self.assertEqual(len(summary_hex), 152)  # 76 bytes as hex
        trailing = summary_hex[-72:]
        self.assertEqual(
            trailing, '0' * 72,
            "Plain P2PKH output summary must emit totalRefs=0, refsHash=zero32; "
            "changing this byte region breaks sighash for every non-Glyph output "
            "in every Radiant tx.")

    def test_glyph_output_emits_nonzero_refs(self):
        """An output containing an OP_PUSHINPUTREF must emit totalRefs >= 1
        and a non-zero refsHash in its per-output summary. Without this,
        Glyph-output-bearing txs produce a preimage that doesn't match
        what radiant-node computed, so their signatures fail consensus."""
        # Mainnet 75B FT holder from block 421000 tx 8ab5cf40...e2ea92f vout[1].
        ft_spk_hex = (
            '76a914e9aa4adbe3a3f07887d67d9cedae324711f053ef88ac'
            'bdd08b87c3c771b1a9f5015a4f26bfd80979ed196b5366257a6f30929646dfd943a4'
            '00000000dec0e9aa76e378e4a269e69d'
        )
        ft_output_script = ScriptOutput(bytes.fromhex(ft_spk_hex))
        tx = transaction.Transaction(signed_blob)  # any valid tx skeleton
        tx.deserialize()
        # Amount 50000 sats (matches the real mainnet output).
        output = (TYPE_SCRIPT, ft_output_script, 50000)
        summary_hex = tx.serialize_hash_output(output)
        self.assertEqual(len(summary_hex), 152)
        # totalRefs = 1 = 01000000 (u32 LE); refsHash = sha256d(36B ref).
        total_refs_hex = summary_hex[80:88]  # bytes 40-43 of summary
        refs_hash_hex = summary_hex[88:]     # bytes 44-75 of summary
        self.assertEqual(total_refs_hex, '01000000',
                         "Single OP_PUSHINPUTREF must emit totalRefs=1")
        self.assertNotEqual(refs_hash_hex, '0' * 64,
                            "Non-zero refs must produce non-zero refsHash")

    def test_mainnet_signature_verifies_against_our_preimage(self):
        """End-to-end consensus proof: the mainnet signature on vin[1] of
        tx 8ab5cf40...e2ea92f (block 421000, 409+ confirmations) verifies
        against the preimage our code constructs. If this test fails,
        PR A has silently broken byte-for-byte parity with radiant-node.

        This tx is exercised because it contains BOTH a 241-byte FT
        mint-authority control script (vout[0], 2 pushrefs) AND a 75-byte
        FT holder (vout[1], 1 pushref), so the per-output summary logic
        is tested for the two main non-standard script shapes at once.
        """
        import hashlib
        from ..bitcoin import Hash

        # Mainnet tx 8ab5cf40042672d5bd9e5c07bf79be43de0132eb3820cc05e09f91d61e2ea92f.
        # Sourced from `radiant-cli getrawtransaction <txid>`.
        tx_hex = (
            '010000000252a2599fa0bd06be4da32384f07b5290d0f7610c97ec8b50588d944ed705ee09'
            '0000000048040788272b20d5c54ac96cec7c3541326718de8f98290e1d9d8c7a0f202e6a3'
            '43c9d04692a0b20482618dc0ae4925a89008fdcabf36a1c7317f0e35cafa9c75de4b746c0'
            '60bd5500ffffffff370f6fb0a922ec8e0e0bf8c4704159353f99d09c6626aa985bc8a02c7'
            '5a56804030000006a47'
            '30440220'
            '3f0ac17c0b05b51de72ac42996a303a223cd82592ec901f9c33efdd654182421'
            '02207f72786ff4da19713ba4b83960c39beb4e4713745f37a8b24ee8457cd668eecc4121'
            '02bc29a508a307b6a3d7da38dfb84cd9b7fb5b2ad36044ab5cf80429c4f1b8b17a'
            'ffffffff04'
            '0100000000000000f1'
            '04bcd00000d88b87c3c771b1a9f5015a4f26bfd80979ed196b5366257a6f30929646dfd9'
            '43a408000000d08b87c3c771b1a9f5015a4f26bfd80979ed196b5366257a6f30929646df'
            'd943a400000000036889090350c3000874da40a70d74da00bd5175c0c855797ea859795'
            '9797ea87e5a7a7eaabc01147f77587f040000000088817600a269a269577ae500a06956'
            '7ae600a06901d053797e0cdec0e9aa76e378e4a269e69d7eaa76e47b9d547a818b76537'
            'a9c537ade789181547ae6939d635279cd01d853797e016a7e886778de519d547854807e'
            'c0eb557f777e5379ec78885379eac0e9885379cc519d75686d7551'
            '50c30000000000004b'
            '76a914e9aa4adbe3a3f07887d67d9cedae324711f053ef88ac'
            'bdd08b87c3c771b1a9f5015a4f26bfd80979ed196b5366257a6f30929646dfd943a40000'
            '0000dec0e9aa76e378e4a269e69d'
            '000000000000000015'
            '6a036d73670f3330373020f09f8c9e205b7236785d'
            '8445861f0400000019'
            '76a9148dd3483e21c8d1abf199230d6854580e4b2fbbd288ac'
            '00000000'
        )
        tx = transaction.Transaction(tx_hex)
        tx.deserialize()
        # Populate per-input fields required by serialize_preimage.
        # vin[0] spends a 241B FT control; mark it 'unknown' since it's not
        # what we're verifying. vin[1] is the plain P2PKH we check.
        vin1_prev_pkh = bytes.fromhex('8dd3483e21c8d1abf199230d6854580e4b2fbbd2')
        inputs = tx.inputs()
        inputs[0]['value'] = 1
        inputs[0]['type'] = 'unknown'
        inputs[0]['address'] = None
        inputs[1]['value'] = 17715837000
        inputs[1]['type'] = 'p2pkh'
        inputs[1]['address'] = Address.from_P2PKH_hash(vin1_prev_pkh)

        preimage = bytes.fromhex(tx.serialize_preimage(1))
        msg_hash = Hash(preimage)

        # Verify the recorded signature against our computed msg_hash.
        # If it verifies, PR A's preimage is byte-identical to
        # radiant-node's.
        import ecdsa
        from ecdsa.util import sigdecode_der
        pk_hex = '02bc29a508a307b6a3d7da38dfb84cd9b7fb5b2ad36044ab5cf80429c4f1b8b17a'
        sig_der = bytes.fromhex(
            '304402203f0ac17c0b05b51de72ac42996a303a223cd82592ec901f9c33efdd6541824'
            '2102207f72786ff4da19713ba4b83960c39beb4e4713745f37a8b24ee8457cd668eecc'
        )
        vk = ecdsa.VerifyingKey.from_string(
            bytes.fromhex(pk_hex),
            curve=ecdsa.SECP256k1,
            hashfunc=hashlib.sha256,
        )
        try:
            vk.verify_digest(sig_der, msg_hash, sigdecode=sigdecode_der)
        except ecdsa.BadSignatureError:
            self.fail(
                "Mainnet signature on tx 8ab5cf40...e2ea92f vin[1] failed to "
                "verify against our preimage. PR A has broken byte-for-byte "
                "parity with radiant-node's hashOutputHashes computation.")


class TestGlyphInputPreimageScript(unittest.TestCase):
    """PR B: get_preimage_script dispatches on txin['type'] and returns
    the full 75B FT / 63B NFT script for Glyph inputs.

    The existing `p2pkh` branch returns the 25B P2PKH script from
    txin['address'].to_script(). For Glyph inputs we need the FULL
    original scriptPubKey (sighash covers everything; no cut at
    OP_STATESEPARATOR). The full script lives on the txin as
    `prev_scriptPubKey_hex`, populated by add_input_info from the
    wallet's stored parent tx."""

    def test_p2pkh_returns_25B_P2PKH(self):
        """Baseline regression: plain P2PKH inputs still return the
        25-byte script from the address."""
        addr = Address.from_P2PKH_hash(bytes.fromhex('8dd3483e21c8d1abf199230d6854580e4b2fbbd2'))
        txin = {'type': 'p2pkh', 'address': addr}
        result = transaction.Transaction.get_preimage_script(txin)
        self.assertEqual(result, '76a9148dd3483e21c8d1abf199230d6854580e4b2fbbd288ac')
        self.assertEqual(len(result) // 2, 25)

    def test_glyph_ft_returns_full_75B_script(self):
        """FT holder inputs return the full 75-byte template."""
        ft_spk_hex = (
            '76a914e9aa4adbe3a3f07887d67d9cedae324711f053ef88ac'
            'bdd08b87c3c771b1a9f5015a4f26bfd80979ed196b5366257a6f30929646dfd943a4'
            '00000000dec0e9aa76e378e4a269e69d'
        )
        self.assertEqual(len(ft_spk_hex) // 2, 75)
        txin = {'type': 'glyph_ft', 'prev_scriptPubKey_hex': ft_spk_hex}
        result = transaction.Transaction.get_preimage_script(txin)
        self.assertEqual(result, ft_spk_hex)

    def test_glyph_nft_returns_full_63B_script(self):
        """NFT singleton inputs return the full 63-byte template."""
        nft_spk_hex = (
            'd808480623910ba219a0903afa9f10140c31c30f0529d51f860401cb79caf24ed0000000007576a914a9763e88160a63a3f03bf846268ed0fb8abd8b5588ac'
        )
        self.assertEqual(len(nft_spk_hex) // 2, 63)
        txin = {'type': 'glyph_nft', 'prev_scriptPubKey_hex': nft_spk_hex}
        result = transaction.Transaction.get_preimage_script(txin)
        self.assertEqual(result, nft_spk_hex)

    def test_glyph_ft_missing_prev_scriptpubkey_raises(self):
        """Defensive: a Glyph txin that somehow lost its
        prev_scriptPubKey_hex (buggy caller) must fail loudly at
        preimage assembly, not silently emit an empty script."""
        txin = {'type': 'glyph_ft'}  # no prev_scriptPubKey_hex
        with self.assertRaises(KeyError):
            transaction.Transaction.get_preimage_script(txin)


class TestGlyphInputScriptSigShape(unittest.TestCase):
    """PR B: input_script (scriptSig construction) treats glyph_ft and
    glyph_nft the same as p2pkh — <sig> <pubkey>. Radiant's sighash
    preimage differs for these types (full script, not 25B P2PKH) but
    the scriptSig form is identical."""

    def test_glyph_ft_scriptsig_is_sig_plus_pubkey(self):
        """Estimated scriptSig for glyph_ft has the same shape as p2pkh:
        a signature push followed by a pubkey push. No redeem script or
        multisig wrapping."""
        addr = Address.from_P2PKH_hash(bytes.fromhex('8dd3483e21c8d1abf199230d6854580e4b2fbbd2'))
        txin_ft = {
            'type': 'glyph_ft',
            'address': addr,
            'num_sig': 1,
            'signatures': [None],
            'x_pubkeys': ['02' + '00' * 32],
        }
        txin_p2pkh = {
            'type': 'p2pkh',
            'address': addr,
            'num_sig': 1,
            'signatures': [None],
            'x_pubkeys': ['02' + '00' * 32],
        }
        # Estimated sizes must match — same scriptSig shape.
        ft_script = transaction.Transaction.input_script(txin_ft, estimate_size=True)
        p2pkh_script = transaction.Transaction.input_script(txin_p2pkh, estimate_size=True)
        self.assertEqual(len(ft_script), len(p2pkh_script))


class NetworkMock(object):

    def __init__(self, unspent):
        self.unspent = unspent

    def synchronous_get(self, arg):
        return self.unspent
